:1000000012C019C018C017C016C015C014C013C044
:1000100012C011C010C00FC00EC00DC00DC00BC06B
:100020000AC009C008C011241FBECFE5D4E0DEBF5E
:10003000CDBF30D06EC0E4CF1F920F920FB60F929B
:1000400011248F9386B1806486B98F910F900FBE73
:100050000F901F90189584B38E7F84BB86B1806803
:1000600086B986B18B7F86B986B1836086B987B140
:100070008F7787B987B1806487B986B1886086B980
:1000800087B18F7D87B987B1807F87B986B180645A
:1000900086B9089587B3876087BB88B3876088BBBC
:1000A000DADF789484B195B18D37924060F084B1F5
:1000B00095B1863A924038F488B3816088BB88B3A2
:1000C000897F88BBEFCF84B195B18E31934060F0CA
:1000D00084B195B18934934038F488B3826088BB89
:1000E00088B38A7F88BBDECF84B195B180379340D7
:1000F00060F084B195B18B39934038F488B3846053
:1001000088BB88B38C7F88BBCDCF88B3887F88BB02
:06011000C9CFF894FFCFF7
:00000001FF
